S01D0000547261666669634C69676874735F50726F6A6563742E73726563A7
S11300000C942A000C9409030C9447000C944700A8
S11300100C9447000C9447000C9447000C94470040
S11300200C9447000C9447000C9447000C94470030
S11300300C9447000C9447000C9447000C94470020
S11300400C9447000C9447000C9447000C94470010
S11300500C94470011241FBECFE5D8E0DEBFCDBF0E
S113006010E0A0E6B0E0E2E1FDE002C005900D92F0
S1130070A436B107D9F720E0A4E6B0E001C01D9290
S1130080A936B207E1F70E9449000C9487060C9444
S113009000000E945A000E9463000E948200609146
S11300A060007091610080916200909163000E94F1
S11300B05301F5CF63E480E00E94320363E482E0FD
S11300C00E943203089561E480E00E94320361E4F7
S11300D081E00E94320361E482E00E94320362E420
S11300E080E00E94320362E481E00E94320362E411
S11300F082E00E94320360E074E080E090E00E94BD
S1130100BC0308950E94D4028FE791E00E94040387
S11301100E94FC020E9400030895CF92DF92EF92A6
S1130120FF926B017C0161E482E00E94600362E45F
S113013080E00E946003A701960160E074E080E023
S113014090E00E94310461E482E00E948E0362E444
S113015080E00E948E03FF90EF90DF90CF9008958F
S1130160CF93DF9360E074E080E090E00E94BC03F2
S1130170C0E0D0E025C061E481E00E94600362E455
S113018081E00E94600320E030E040E05FE360E053
S113019074E080E090E00E94310461E481E00E9418
S11301A08E0362E481E00E948E0320E030E040E0B0
S11301B05FE360E074E080E090E00E943104219607
S11301C0C930D105C4F2DF91CF910895CF93DF9365
S11301D060E074E080E090E00E94BC03C0E0D0E006
S11301E025C061E481E00E94600362E481E00E9432
S11301F0600320E030E040E05FE360E074E080E032
S113020090E00E94310461E481E00E948E0362E484
S113021081E00E948E0320E030E040E05FE360E094
S113022074E080E090E00E9431042196C730D1054B
S1130230C4F2DF91CF9108950E94E6000895CF9211
S1130240DF92EF92FF926B017C0161E480E00E94F7
S1130250600362E482E00E946003A701960160E00B
S113026074E080E090E00E94310461E480E00E9448
S11302708E0362E482E00E948E03FF90EF90DF9091
S1130280CF90089561E480E00E948E0361E482E0EF
S11302900E948E0362E480E00E948E0362E482E0A6
S11302A00E948E030895CF92DF92EF92FF926B012A
S11302B07C010E948D000E94B000C701B6010E941B
S11302C01F010E9442010E94B000FF90EF90DF9056
S11302D0CF900895CF92DF92EF92FF926B017C0151
S11302E00E9442010E94B000C701B6010E941F0192
S11302F00E94B000FF90EF90DF90CF900895DA9BBA
S113030007C060E070E080EA90E40E946A0108950A
S1130310D99B03C0C1990E941C010895883020F024
S113032081E0809364009AC0423020F083E080939F
S1130330640094C0623461F118F4613441F08BC0FC
S1130340633409F446C0643409F464C084C04111C0
S11303500EC04AB321E030E0B90102C0660F771F36
S11303608A95E2F7CB01809584238ABB0EC0413085
S113037061F44AB321E030E0B90102C0660F771F8F
S11303808A95E2F7CB01842B8ABB1092640066C085
S113039041110EC047B321E030E0B90102C0660F3D
S11303A0771F8A95E2F7CB018095842387BB0EC023
S11303B0413061F447B321E030E0B90102C0660F77
S11303C0771F8A95E2F7CB01842B87BB10926400D8
S11303D045C041110EC044B321E030E0B90102C070
S11303E0660F771F8A95E2F7CB018095842384BB3F
S11303F00EC0413061F444B321E030E0B90102C0E1
S1130400660F771F8A95E2F7CB01842B84BB109289
S1130410640024C041110EC041B321E030E0B901B1
S113042002C0660F771F8A95E2F7CB01809584237B
S113043081BB0EC0413061F441B321E030E0B90129
S113044002C0660F771F8A95E2F7CB01842B81BB2C
S11304501092640003C082E0809364008091640081
S11304600895883020F081E0809364009AC042307F
S113047020F083E08093640094C0623461F118F446
S1130480613441F08BC0633409F446C0643409F428
S113049064C084C041110EC04BB321E030E0B90107
S11304A002C0660F771F8A95E2F7CB0180958423FB
S11304B08BBB0EC0413061F44BB321E030E0B90195
S11304C002C0660F771F8A95E2F7CB01842B8BBBA2
S11304D01092640066C041110EC048B321E030E0C0
S11304E0B90102C0660F771F8A95E2F7CB018095A8
S11304F0842388BB0EC0413061F448B321E030E06E
S1130500B90102C0660F771F8A95E2F7CB01842BED
S113051088BB1092640045C041110EC045B321E070
S113052030E0B90102C0660F771F8A95E2F7CB016C
S11305308095842385BB0EC0413061F445B321E02E
S113054030E0B90102C0660F771F8A95E2F7CB014C
S1130550842B85BB1092640024C041110EC042B3A9
S113056021E030E0B90102C0660F771F8A95E2F7F7
S1130570CB018095842382BB0EC0413061F442B329
S113058021E030E0B90102C0660F771F8A95E2F7D7
S1130590CB01842B82BB1092640003C082E0809361
S11305A0640080916400089585B78E7F85BF85B708
S11305B08D7F85BF85B78B7F85BF85B7877F85BFD7
S11305C084B78F7B84BF85B7836085BF85B7886018
S11305D085BF8BB780648BBF8BB780688BBF8BB7AD
S11305E08F7D8BBF8AB780648ABF8BB780688BBFCF
S11305F08BB780628BBF08958BB780648BBF0895DF
S11306008FB780688FBF08959093660080936500CC
S113061008951F920F920FB60F9211242F933F93B8
S11306204F935F936F937F938F939F93AF93BF93F6
S1130630EF93FF93E0916500F0916600309709F025
S11306400995FF91EF91BF91AF919F918F917F9108
S11306506F915F914F913F912F910F900FBE0F902B
S11306601F901895CF93DF93C82FD62F41E00E9497
S11306708E01811103C0109267001DC041E06D2FEF
S11306808C2F0E948E01813019F48093670013C06F
S113069041E06D2F8C2F0E948E01823019F48093DB
S11306A0670009C041E06D2F8C2F0E948E018330BA
S11306B011F48093670080916700DF91CF910895D2
S11306C0CF93DF93C82FD62F41E00E9431028111CE
S11306D003C0109267001DC041E06D2F8C2F0E9453
S11306E03102813019F48093670013C041E06D2F0B
S11306F08C2F0E943102823019F48093670009C064
S113070041E06D2F8C2F0E943102833011F48093CD
S1130710670080916700DF91CF910895CF93DF93B5
S1130720C82FD62F40E00E943102811103C01092DD
S113073067001DC040E06D2F8C2F0E943102813074
S113074019F48093670013C040E06D2F8C2F0E9432
S11307503102823019F48093670009C040E06D2FA4
S11307608C2F0E943102833011F4809367008091B2
S11307706700DF91CF91089513BE6830710581053C
S1130780910509F450C060F4611571058105910566
S113079009F455C06130710581059105A1F05BC074
S11307A0611521E072078105910529F1611524E0A5
S11307B072078105910599F06034710581059105F1
S11307C009F049C024C083B78E7F83BF83B78D7F70
S11307D083BF83B78B7F83BF109268003FC083B70A
S11307E0816083BF83B78D7F83BF83B7846083BFFA
S11307F01092680033C083B78E7F83BF83B78D7F29
S113080083BF83B7846083BF1092680027C083B717
S1130810816083BF83B7826083BF83B78B7F83BFCD
S1130820109268001BC083B78E7F83BF83B782603A
S113083083BF83B78B7F83BF109268000FC083B7D9
S1130840816083BF83B78D7F83BF83B78B7F83BF73
S11308501092680003C081E0809368008091680072
S113086008958F929F92AF92BF92CF92DF92EF92B0
S1130870FF92CF936B017C0149015A010E94BC0392
S1130880882321F081E08093680042C020E030E0BA
S1130890A901C501B4010E949404811104C082E03D
S11308A08093680035C0C701B6010E940B0520E0A3
S11308B034E244E759E40E94990420E030E040E83F
S11308C053E40E941A069B01AC01C501B4010E94C5
S11308D099040E9448056B017C0112BEC0E007C068
S11308E008B600FEFDCF88B7816088BFCF5F6C2F4C
S11308F070E080E090E00E940D059B01AC01C7010F
S1130900B6010E94150618165CF312BE1092680018
S113091080916800CF91FF90EF90DF90CF90BF90CF
S1130920AF909F908F9008950E945F0508F481E036
S113093008950E94AD040C94C3050E94BC0558F0B0
S11309400E94B50540F029F45F3F29F00C9483051B
S113095051110C940F060C94B2050E94D40568F34F
S11309609923B1F3552391F3951B550BBB27AA2764
S113097062177307840738F09F5F5F4F220F331F9E
S1130980441FAA1FA9F335D00E2E3AF0E0E832D066
S113099091505040E695001CCAF72BD0FE2F29D069
S11309A0660F771F881FBB1F261737074807AB073B
S11309B0B0E809F0BB0B802DBF01FF2793585F4FB0
S11309C03AF09E3F510578F00C9483050C940F0681
S11309D05F3FE4F3983ED4F3869577956795B79592
S11309E0F7959F5FC9F7880F911D9695879597F99D
S11309F00895E1E0660F771F881FBB1F6217730716
S1130A008407BA0720F0621B730B840BBA0BEE1F2A
S1130A1088F7E0950895E89409C097FB3EF4909513
S1130A208095709561957F4F8F4F9F4F9923A9F0C3
S1130A30F92F96E9BB279395F69587957795679552
S1130A40B795F111F8CFFAF4BB0F11F460FF1BC096
S1130A506F5F7F4F8F4F9F4F16C0882311F096E929
S1130A6011C0772321F09EE8872F762F05C06623D7
S1130A7071F096E8862F70E060E02AF09A95660F90
S1130A80771F881FDAF7880F9695879597F9089549
S1130A900E94F60590F09F3748F4911116F00C94DB
S1130AA00F0660E070E080E89FEB089526F41B16C3
S1130AB0611D711D811D0C9489050C94A405990F69
S1130AC00008550FAA0BE0E8FEEF16161706E80714
S1130AD0F907C0F012161306E407F50798F0621B35
S1130AE0730B840B950B39F40A2661F0232B242B0A
S1130AF0252B21F408950A2609F4A140A6958FEF29
S1130B00811D811D089597F99F6780E870E060E07A
S1130B100895882371F4772321F09850872B762F3A
S1130B2007C0662311F499270DC09051862B70E0FD
S1130B3060E02AF09A95660F771F881FDAF7880F0E
S1130B409695879597F908959F3F31F0915020F439
S1130B50879577956795B795880F911D9695879595
S1130B6097F908959FEF80EC089500240A941616CF
S1130B70170618060906089500240A941216130687
S1130B80140605060895092E0394000C11F4882315
S1130B9052F0BB0F40F4BF2B11F460FF04C06F5F31
S1130BA07F4F8F4F9F4F089557FD9058440F551F07
S1130BB059F05F3F71F04795880F97FB991F61F0DB
S1130BC09F3F79F087950895121613061406551F52
S1130BD0F2CF4695F1DF08C0161617061806991FBE
S1130BE0F1CF869571056105089408950E94DC058E
S1130BF0A0F0BEE7B91788F4BB279F3860F4161637
S1130C00B11D672F782F8827985FF7CF8695779542
S1130C106795B11D93959639C8F30895E894BB2759
S1130C2066277727CB0197F908950E945F0508F49A
S1130C308FEF08950E942D060C94C3050E94B505FC
S1130C4038F00E94BC0520F0952311F00C94830524
S1130C500C94B20511240C940F060E94D40570F371
S1130C60959FC1F3950F50E0551F629FF001729F4D
S1130C70BB27F00DB11D639FAA27F00DB11DAA1F5C
S1130C80649F6627B00DA11D661F829F2227B00DA9
S1130C90A11D621F739FB00DA11D621F839FA00D34
S1130CA0611D221F749F3327A00D611D231F849F84
S1130CB0600D211D822F762F6A2F11249F575040DB
S1130CC09AF0F1F088234AF0EE0FFF1FBB1F661F56
S1130CD0771F881F91505040A9F79E3F510580F01F
S1130CE00C9483050C940F065F3FE4F3983ED4F311
S1130CF0869577956795B795F795E7959F5FC1F7C3
S1130D00FE2B880F911D9695879597F90895F89471
S1050D10FFCF0F
S1070D120000A040F9
S9030000FC
